:02000004080AE8
:1000000000000A0808270A0800000600060005018B
:080010000402FD0800000000DD
:0400180070240A083E
:1000200009480A4908B5884205D0094A824202D0E7
:10003000121A02F073F90748074A0021121A02F057
:100040007BF9064808BD00BF0000002074260A089E
:100050006C0000206C000020FD050020FD05002044
:1000600070B500F00FFE0025054E064CA41BA40839
:10007000A54200D170BD56F8043B98470135F7E71B
:1000800050260A0870260A0800F0ECB808B500F0FF
:1000900013F9BDE8084000F0ADBD00F06DBB00F005
:1000A00073BB0078B0FA80F04009704701230370F9
:1000B00070474260112241700270704710B50446CB
:1000C000406801F030F810B9606800F0EFFF0120DF
:1000D00010BD000070B504464178406801F018F882
:1000E00061780222606801F010F8606803685B695B
:1000F00098470646606803685B69984705466068EC
:1001000001F00EF845EA062080B201F0E3FE024954
:1001100001F0ECFF70BD00BF9A99993F0378232B43
:1001200005D0132B0CBF1820B42000F023BD1820DD
:10013000FBE738B504460D464178406800F0E8FF1B
:100140006068294603689B689847606800F0E8FF8C
:1001500020462570BDE83840FFF7E0BF10B50378B2
:100160000446A3F12002012A01D9232B10D1617882
:10017000606800F0CDFF6068217803689B6898474D
:10018000606800F0CDFF2046BDE81040FFF7C6BF15
:1001900010BD10B5044600F077FE2168BDE81040A0
:1001A00000F0CCBB38B505460C4600F06DFE296862
:1001B00000F0B1FB00F068FE054900F0ACFB00F078
:1001C00063FE2146BDE83840022200F0ADBC00BF0E
:1001D00084240A0830B50C4685B0054600F05CF969
:1001E00001F078FE214601F0C3FD0B4902F086F8CC
:1001F00070B12946684600F05DFB6846FFF7C9FF0D
:10020000684600F0EBFA00F047F901F063FE04469F
:10021000204605B030BD00BF000016437FB5144630
:100220000D46064600F038F901F054FE214601F073
:100230009FFD0B4902F062F878B13146684600F044
:1002400039FB29466846FFF7ADFF684600F0C6FA5D
:1002500000F022F901F03EFE0446204604B070BDD5
:100260000000164310B50F4C2046FFF727FF212151
:100270002046FFF75EFF00F007FE4FF4165100F036
:10028000E9FD00F009F901F025FE0022064B186097
:10029000064B1A6000F0F8FDBDE81040044900F07C
:1002A0003ABB00BF8C000020940000206C000020AE
:1002B00086240A08000000002DE9F043584C85B060
:1002C00000F0EAF801F006FE216801F051FD054654
:1002D00000F0E2F801F0FEFD20605248FFF73EFF1B
:1002E0005048FFF7F7FE504C074623784F4E23B196
:1002F0003068294601F03EFD3060DFF86481384601
:100300004B4998F8009001F0F9FF002867D0494F59
:10031000B9F1000F5DD1484D4849684600F0A8FA90
:1003200029686846FFF756FF2860684600F056FACD
:100330004349684600F09CFA6846FFF72AFF684682
:1003400000F04CFA3F4D3868296801F013FD3E4932
:1003500001F0CAFF88B32378DFF8088173B901235D
:100360003A496846237000F083FA6846FFF711FFA8
:10037000684600F033FA0023C8F80030296838686E
:1003800001F0F8FC01F050F902460B4622A1D1E938
:10039000000100F0E9FF01F097FC2D492860684654
:1003A00000F066FA6846D8F800202968FFF736FFA3
:1003B000C8F80000684600F011FA2649306801F0DC
:1003C00093FF18B1002333600023237005B0BDE80C
:1003D000F0833868294601F0CDFC3860B2E7B9F106
:1003E000000FEAD0134F1C4988F80000684600F05F
:1003F0003FFA39686846FFF7D5FE184D684600F0A9
:10040000EDF91549684600F033FA68462A683968FC
:10041000FFF704FF2860CDE7000000000094C14012
:10042000940000208C000020740000209800002020
:10043000000048447800002084000020B1240A080D
:10044000BF240A087000002000A00C46C4240A083B
:10045000E1240A0880CBA44CF5240A08800000207F
:100460007C0000208800002008B500F051FF232107
:1004700002460448FFF71DFEBDE8084000210120A8
:1004800000F0F6B88C00002008B5024B1B685B68D2
:10049000019308BD9C01060808B5024B1B685B6907
:1004A000019308BD9C01060808B5024B1B689B69B7
:1004B000019308BDC401060808B5024B1B685B6ABE
:1004C000019308BDC401060808B5024B1B689B6A6E
:1004D000019308BDC401060808B5024B1B68DB6A1E
:1004E000019308BDC401060808B5024B1B681B6BCD
:1004F000019308BDC401060808B5024B1B685B6B7D
:10050000019308BDC401060808B5024B1B681B6CAB
:10051000019308BDC401060808B5024B1B68DB6CDB
:10052000019308BDAC01060808B5024B1B689B6D22
:10053000019308BDAC01060808B5024B1B68DB6DD2
:10054000019308BDAC01060808B5024B1B681B6E81
:10055000019308BDAC01060808B5024B1B685B6E31
:10056000019308BDAC01060808B5024B1B689B6EE1
:10057000019308BDAC01060808B5024B1B68DB6E91
:10058000019308BDAC01060808B5024B1B681B6F40
:10059000019308BDAC01060808B5024B1B685B6FF0
:1005A000019308BDAC01060808B5034B1B68D3F8DE
:1005B0008030019308BD0000AC01060808B5034B6C
:1005C0001B68D3F89030019308BD0000AC01060809
:1005D00008B5024B1B681B68019308BDD8010608CB
:1005E00008B5024B1B685B68019308BDD80106087B
:1005F00008B5024B1B681B69019308BDD8010608AA
:1006000008B5024B1B685B69019308BDD801060859
:1006100008B5024B1B689B69019308BDD801060809
:1006200008B5024B1B68DB69019308BDD8010608B9
:1006300008B5024B1B681B6A019308BDD801060868
:1006400008B5024B1B689B6C019308BDC0010608EE
:1006500008B5024B1B685B68019308BDA40106083E
:1006600008B5024B1B685B69019308BDA40106082D
:1006700008B5024B1B68DB6A019308BDA40106089C
:1006800008B5034B1B68D3F89030019308BD0000F8
:10069000A401060808B5034B1B68D3F89C300193EE
:1006A00008BD0000A401060808B5024B1B685B6882
:1006B000019308BDC801060808B5024B1B689B687A
:1006C000019308BDC801060808B5024B1B68DB682A
:1006D000019308BDC801060808B5024B1B681B69D9
:1006E000019308BDC801060808B5024B1B685B6989
:1006F000019308BDC801060808B5024B1B689B6939
:10070000019308BDC801060808B5024B1B68DB69E8
:10071000019308BDC801060808B5024B1B681B6A97
:10072000019308BDC801060808B5024B1B681B6B86
:10073000019308BDC801060808B5024B1B685B6B36
:10074000019308BDC801060808B5024B1B681B6C65
:10075000019308BDC801060808B5024B1B685B6C15
:10076000019308BDC801060808B5024B1B68DB6B86
:10077000019308BDCC01060808B5024B1B681B6835
:10078000019308BDA001060808B5024B1B685B6811
:10079000019308BDA001060808B5024B1B689B68C1
:1007A000019308BDA001060808B5024B1B685B6CED
:1007B000019308BDA001060802220020044B1A6024
:1007C000044B054A1860988098719A60FFF740BF03
:1007D000A80000209C0000200000FFFF10B5044688
:1007E0000068FFF7D1FF204610BD10B50446006831
:1007F00008B1FFF7C9FF0023C4E90133236010BD2E
:1008000038B504460D4600680131FFF7C5FF10B149
:10081000C4E90005012038BD10B50368044623B1C2
:1008200043688B4201D3012010BD2046FFF7E8FF4B
:100830000028F9D0A368002BF5D122681370F2E7E5
:1008400070B50E46114604461546FFF7E5FF20B980
:100850002046FFF7CAFF204670BD2A463146206871
:10086000A56001F05BFD00212268A368D154F2E786
:1008700038B5002304460D46C0E900338360037396
:1008800039B1084601F084FD294602462046FFF7AB
:10089000D7FF204638BD884210B50B46044604D029
:1008A000096821B19A68FFF7CBFF204610BDFFF71A
:1008B0009CFFFAE7002310B50446C0E900338360CB
:1008C0000373FFF7E8FF204610BDF8B506460D4656
:1008D00000248F18BD420CD0336830469B6815F851
:1008E000011B9847031E01DB1C44F3E7002C08BFE3
:1008F0001C462046F8BD70B505460C46084649B171
:1009000001F046FD2B68024621462846BDE87040AE
:10091000DB68184770BD08B5FFF7EDFF08BD036839
:100920009B68184738B50D210546FFF7F8FF0A21E7
:1009300004462846FFF7F3FF204438BD38B5054686
:10094000FFF7D9FF04462846FFF7ECFF204438BDE7
:100950000023012A98BF0A2230B58BB00C468DF8CF
:10096000243009A92546B4FBF2F404FB1253DBB290
:10097000092B94BF30333733DBB2AA4201F8013D73
:10098000F0D9FFF7B8FF0BB030BD00002DE9F74FED
:1009900005461946104692461F469DF8306001F004
:1009A00035F940B150492846FFF7A5FF04462046D7
:1009B00003B0BDE8F08F27F000444FF0FF325046FF
:1009C00021464A4B01F022F948B94FF0FF32504618
:1009D0002146464B01F0FCF808B94549E3E74FF0E2
:1009E000604250463946434B01F006F908B142498E
:1009F000D9E74FF0604250463946404B01F0DEF8EF
:100A00000028F4D1002200235046394601F0D6F8E0
:100A1000044630B12D212846FFF781FF044607F137
:100A200000474FF0000B00204FF000083449DFF87A
:100A3000D8905FFA8BF39E4206D942464B4600F0AF
:100A400075FF0BF1010BF4E73B46524600F08EFCBC
:100A50008946804601F018F9074600F0C3FD0246BA
:100A60000B464046494600F07FFC0A2280468946F4
:100A700028463946FFF76CFF044426B12846214931
:100A8000FFF739FF04444FF0000ADFF87CB0013E65
:100A9000F6B2FF2E8BD052465B464046494600F0E8
:100AA0001BFE8046894601F0C7F8071E19DA2D2182
:100AB0002846FFF734FF034679420A22284601936D
:100AC000FFF746FF019B034438461C4400F09AFDA3
:100AD00002460B464046494600F046FC80468946A1
:100AE000D5E739460023E8E70C250A08FFFFEF7F2A
:100AF00010250A08FFFFEF4114250A08FFFFEFC188
:100B00000000E03FAF240A080000244037B59DF8FC
:100B1000181005460091FFF739FF04462846FFF7F5
:100B200001FF204403B030BD37B5044608461546E2
:100B300000F07AFD009502460B462046FFF7E6FFDF
:100B400003B030BD002340681A461946FFF7CCBDFC
:100B5000014B024A1A607047AC00002018250A08B1
:100B6000024B1A68024B1A60704700BF0000002059
:100B7000B00000200021FFF773BD00000022014BF0
:100B80009A607047B4000020014B1860704700BFA6
:100B90000400002008B5134B43B100F075F9036859
:100BA0001B699847002801DDAFF300800E4B43B16D
:100BB00000F01AFA03681B699847002801DDAFF3BB
:100BC00000800A4B0BB1AFF30080094B43B100F03A
:100BD00095F903681B699847002801DDAFF3008091
:100BE00008BD00BF00000000000000000000000081
:100BF0000000000008B5FFF7CDFFFFF74DFC014BEB
:100C0000186008BD300500200548064A08B5121ACC
:100C1000054901F083FB054B054A1A6008BD00BF7A
:100C2000004002400440024070260A080040024092
:100C30001E1C279A002307B51A466FF07701009310
:100C4000FFF728FD03B05DF804FB000007B54388FB
:100C50000A2B08D0502B0BD1094B1B684BB103B0AA
:100C60005DF804EB1847FFF7E5FF03B05DF804FB00
:100C700000231A466FF077010093FFF70BFDF4E7AE
:100C8000C8000020002110B51148FFF78DFD114B61
:100C90001A68114B9A420CBF012200220F4B1A70A6
:100CA00001D0FFF7B1FFFFF7EFFB044601F04CFB6B
:100CB0000B4B13B12046AFF3008000210848FFF72B
:100CC00053FDBDE8104000210648FFF7D9BC00BF26
:100CD000890B0A08004002401E1C279AC40000200D
:100CE000000000004D0C0A08704710B5044618219A
:100CF00000F032FB204610BDF8B50E46002400F18E
:100D00000807051D17F8011D0A223046FFF720FECF
:100D1000AF42044401D12046F8BD002CF2D02E2170
:100D20003046FFF7FCFD0444ECE7000010B5044634
:100D3000044B1122002140F8043B01F0FDFA20464B
:100D400010BD00BF40250A080346074A10B543F806
:100D5000042B01F1100251F8044B914243F8044B6B
:100D6000F9D10A781A7010BD40250A08024AC0E974
:100D7000002104220275704740250A0810B59DF82D
:100D8000084044EA0324042344EA024444EA016498
:100D90004460037510BD000037B5044D05609DF833
:100DA00018500095FFF7EAFF03B030BD40250A0850
:100DB000417470477047704708B50021007CFFF709
:100DC00027FC40EAE07008BD08B50121007CFFF770
:100DD0001FFC40EAE07008BD08B5007CFFF710FC7E
:100DE00020EAE07008BD08B5007CFFF701FC20EAAE
:100DF000E07008BD38B50446007C0D46FFF700FCE6
:100E0000002801DC607C28B12946207CFFF708FC23
:100E100020EAE07038BD007CFFF70ABC10B504463C
:100E2000142100F099FA204610BD704710B54FF418
:100E30007A73044608460021C4E90113044B207468
:100E40002360012311466374FFF7C2FB204610BDE7
:100E500054250A080022007CFFF7C2BB10B50446E7
:100E60001422002101F068FA054B20466360054B0F
:100E7000E36040F2011323818123238210BD00BF70
:100E8000FC000020FD01002030B50E4D87B001A808
:100E9000FFF7E4FF2978BFF35B8F11F001040ED157
:100EA0002846FFF7FEF850B1214601AA0648FFF791
:100EB000BDFF2846FFF7FAF8044801F029FA024876
:100EC00007B030BDCC000020D4000020B50D0A08CA
:100ED00010B504461422002101F02EFA054B2046DD
:100EE0006360054BE36040F2011323818123238279
:100EF00010BD00BF7E0200207F03002010B50E4C05
:100F000086B001A8FFF7E4FF2378BFF35B8FDB0710
:100F10000ED42046FFF7C5F850B1012101AA0748B9
:100F2000FFF784FF2046FFF7C1F8054801F0F0F90C
:100F3000024806B010BD00BFD0000020E80000202D
:100F40002B0E0A08704741747047704708B5007C43
:100F5000FFF7DAFA20EAE07008BD08B5007CFFF779
:100F6000B3FA20EAE07008BD08B5007CFFF7BCFAD0
:100F700040EAE07008BD08B5007CFFF7ADFA40EA32
:100F8000E07008BD007CFFF7B7BA70B5467C044638
:100F90000D462EB12946207CBDE87040FFF78CBA83
:100FA000007CFFF7B1FA0028F4DC304670BD10B5C4
:100FB0000446142100F0D0F9204610BD4FF0000C7B
:100FC00010B50446084611464FF47A72C4E901C2CE
:100FD000044A20742260012262741A46FFF764FA00
:100FE000204610BD84250A0838B50C4D2978BFF37A
:100FF0005B8F11F001040FD12846FFF752F858B16A
:101000002146074B074A0848FFF7D8FF2846FFF755
:101010004DF8064801F07CF9034838BD0004002073
:1010200088040020040400200C0500204B0F0A084F
:101030007047F8B5064615460C468F18BC4206D0D8
:10104000336830469B6814F8011B9847F6E728463A
:10105000F8BD0022007CFFF777BA0021007CFFF783
:101060007BBA0021007CFFF77FBA0021007CFFF7EC
:1010700083BA0021007CFFF787BA10B5044614211B
:1010800000F06AF9204610BD10B54FF47A7304469B
:1010900008460021C4E90113034B11462360207464
:1010A000FFF782FA204610BDB4250A080023007C11
:1010B0001A461946FFF730BA7FB500221423CDE94E
:1010C0000122ADF804300B78007C8DF808304B68B5
:1010D0000393CB6804930B7A01A90593FFF76EFA8B
:1010E00007B05DF804FB1FB5003B8DF800104FF012
:1010F000640118BF01230391694601928DF80830FD
:10110000FFF7DAFF05B05DF804FB0123FFF7EBBF43
:101110000022007CFFF708BA0022007CFFF70CBA1F
:101120000121FFF7F9BF0021007CFFF735BA00224B
:1011300040681146FFF7D0BAF0B5154689B01122C4
:101140000E460446002103A801F0F6F8284601F0F7
:101150001FF9002781B273682846009703AAFFF79A
:101160006FFA30B139462046FFF700FE204609B03D
:10117000F0BD204603A9FFF7E7FDF7E7002240682E
:101180001146FFF7C9BA002240681146FFF7D4BAEA
:1011900000224068FFF7C8BA0022406881F00101D0
:1011A000FFF7B2BA002340681A461946FFF7A4BAFF
:1011B000002240681146FFF77FBA002202214068F2
:1011C000FFF782BA002340681A46FFF76DBA0000A5
:1011D0000422024B5A60024A1A6070472005002020
:1011E000DC250A08002340681A46FFF75DBA002292
:1011F00002214068FFF768BA002240681146FFF7F5
:101200005BBA002240681146FFF766BA00234068C7
:101210001A461946FFF768BA002340681A4619466D
:10122000FFF76ABA00214068FFF78EBA00214068D4
:10123000FFF792BA0022406881F00101FFF764BA1B
:1012400000224068FFF770BA002240681146FFF79D
:1012500073BA002240681146FFF75EBA70B51546B2
:101260008EB0044608A8FFF761FD1122002103A8F3
:1012700001F062F80026284601F08AF80A4B009631
:1012800081B25B68284603AAFFF7DAF930B131462C
:101290002046FFF76BFD20460EB070BD204603A927
:1012A000FFF752FDF7E700BF20050020024B034A7D
:1012B0001A6000225A6070472805002018260A0884
:1012C000002307B51A46194600930348FFF764FD4B
:1012D00003B05DF804FB00BF340500207047000038
:1012E000002370B5202543801423084E0446038054
:1012F000314685600561284600F030F8314660606F
:10130000284600F02BF8E060204670BD4C260A0805
:1013100030B50E4D87B02978BFF35B8F11F0010413
:1013200011D12846FEF7BDFE68B101A8FFF7D8FF2E
:10133000214601AA0648FFF7A7FE2846FEF7B6FE9B
:10134000044800F0E5FF024807B030BD4C0500201E
:1013500050050020DD120A08FEF7A1BEFEF79DBE73
:1013600081F0004102E000BF83F0004330B54FEA56
:1013700041044FEA430594EA050F08BF90EA020FC3
:101380001FBF54EA000C55EA020C7FEA645C7FEA56
:10139000655C00F0E2804FEA5454D4EB5555B8BF79
:1013A0006D420CDD2C4480EA020281EA030382EAEA
:1013B000000083EA010180EA020281EA0303362D7C
:1013C00088BF30BD11F0004F4FEA01314FF4801C4F
:1013D0004CEA113102D0404261EB410113F0004F61
:1013E0004FEA03334CEA133302D0524263EB430318
:1013F00094EA050F00F0A780A4F10104D5F1200EB6
:101400000DDB02FA0EFC22FA05F2801841F1000110
:1014100003FA0EF2801843FA05F359410EE0A5F1E4
:1014200020050EF1200E012A03FA0EFC28BF4CF015
:10143000020C43FA05F3C01851EBE37101F00045CB
:1014400007D54FF0000EDCF1000C7EEB00006EEBD8
:101450000101B1F5801F1BD3B1F5001F0CD3490862
:101460005FEA30004FEA3C0C04F101044FEA4452B9
:1014700012F5800F80F09A80BCF1004F08BF5FEA40
:10148000500C50F1000041EB045141EA050130BD20
:101490005FEA4C0C404141EB0101013C28BFB1F532
:1014A000801FE9D291F0000F04BF01460020B1FA7D
:1014B00081F308BF2033A3F10B03B3F120020CDA50
:1014C0000C3208DD02F1140CC2F10C0201FA0CF02E
:1014D00021FA02F10CE002F11402D8BFC2F1200C93
:1014E00001FA02F120FA0CFCDCBF41EA0C01904049
:1014F000E41AA2BF01EB0451294330BD6FEA040492
:101500001F3C1CDA0C340EDC04F11404C4F120027C
:1015100020FA04F001FA02F340EA030021FA04F38E
:1015200045EA030130BDC4F10C04C4F1200220FAE5
:1015300002F001FA04F340EA0300294630BD21FA23
:1015400004F0294630BD94F0000F83F4801306BFE9
:1015500081F480110134013D4EE77FEA645C18BFDD
:101560007FEA655C29D094EA050F08BF90EA020F74
:1015700005D054EA000C04BF1946104630BD91EA6C
:10158000030F1EBF0021002030BD5FEA545C05D16F
:101590004000494128BF41F0004130BD14F58004AE
:1015A0003CBF01F5801130BD01F0004545F0FE4122
:1015B00041F470014FF0000030BD7FEA645C1ABF57
:1015C000194610467FEA655C1CBF0B46024650EA8E
:1015D000013406BF52EA033591EA030F41F40021BA
:1015E00030BD00BF90F0000F04BF0021704730B540
:1015F0004FF4806404F132044FF000054FF0000115
:1016000050E700BF90F0000F04BF0021704730B5D5
:101610004FF4806404F1320410F0004548BF4042AA
:101620004FF000013EE700BF42004FEAE2014FEAFF
:1016300031014FEA02701FBF12F07F4393F07F4FDA
:1016400081F06051704732F07F4208BF704793F0DD
:101650007F4F04BF41F40021704730B54FF46074F0
:1016600001F0004521F000411CE700BF50EA0102F3
:1016700008BF704730B54FF000050AE050EA01029C
:1016800008BF704730B511F0004502D5404261EB0C
:1016900041014FF4806404F132045FEA915C3FF44D
:1016A000D8AE4FF003025FEADC0C18BF03325FEAEA
:1016B000DC0C18BF033202EBDC02C2F1200300FA9B
:1016C00003FC20FA02F001FA03FE40EA0E0021FAC0
:1016D00002F11444BDE600BF70B54FF0FF0C4CF4AE
:1016E000E06C1CEA11541DBF1CEA135594EA0C0F60
:1016F00095EA0C0F00F0DEF82C4481EA030621EA9B
:101700004C5123EA4C5350EA013518BF52EA0335D5
:1017100041F4801143F4801338D0A0FB02CE4FF087
:101720000005E1FB02E506F00042E0FB03E54FF0B7
:101730000006E1FB03569CF0000F18BF4EF0010EAF
:10174000A4F1FF04B6F5007F64F5407404D25FEAAB
:101750004E0E6D4146EB060642EAC62141EA55515E
:101760004FEAC52040EA5E504FEACE2EB4F1FD0CA0
:1017700088BFBCF5E06F1ED8BEF1004F08BF5FEA1E
:10178000500E50F1000041EB045170BD06F00046D0
:1017900046EA010140EA020081EA0301B4EB5C047D
:1017A000C2BFD4EB0C0541EA045170BD41F4801175
:1017B0004FF0000E013C00F3AB8014F1360FDEBF9A
:1017C000002001F0004170BDC4F10004203C35DA76
:1017D0000C341BDC04F11404C4F1200500FA05F3F9
:1017E00020FA04F001FA05F240EA020001F000429A
:1017F00021F0004110EBD37021FA04F642EB060110
:101800005EEA430E08BF20EAD37070BDC4F10C0439
:10181000C4F1200500FA04F320FA05F001FA04F2FD
:1018200040EA020001F0004110EBD37041F10001E9
:101830005EEA430E08BF20EAD37070BDC4F12005F4
:1018400000FA05F24EEA020E20FA04F301FA05F25C
:1018500043EA020321FA04F001F0004121FA04F204
:1018600020EA020000EBD3705EEA430E08BF20EAD4
:10187000D37070BD94F0000F0FD101F0004640000E
:1018800041EB010111F4801F08BF013CF7D041EA90
:10189000060195F0000F18BF704703F00046520094
:1018A00043EB030313F4801F08BF013DF7D043EA65
:1018B0000603704794EA0C0F0CEA135518BF95EA1B
:1018C0000C0F0CD050EA410618BF52EA4306D1D1A2
:1018D00081EA030101F000414FF0000070BD50EAC1
:1018E000410606BF1046194652EA430619D094EA4B
:1018F0000C0F02D150EA013613D195EA0C0F05D135
:1019000052EA03361CBF104619460AD181EA030188
:1019100001F0004141F0FE4141F470014FF0000040
:1019200070BD41F0FE4141F4780170BD70B54FF0DB
:10193000FF0C4CF4E06C1CEA11541DBF1CEA13555B
:1019400094EA0C0F95EA0C0F00F0A7F8A4EB05043D
:1019500081EA030E52EA03354FEA013100F0888034
:101960004FEA03334FF0805545EA131343EA1263FD
:101970004FEA022245EA111545EA10654FEA0026B2
:101980000EF000419D4208BF964244F1FD0404F56B
:10199000407402D25B084FEA3202B61A65EB0305C7
:1019A0005B084FEA32024FF480104FF4002CB6EB84
:1019B000020E75EB030E22BFB61A754640EA0C0004
:1019C0005B084FEA3202B6EB020E75EB030E22BF44
:1019D000B61A754640EA5C005B084FEA3202B6EB85
:1019E000020E75EB030E22BFB61A754640EA9C0044
:1019F0005B084FEA3202B6EB020E75EB030E22BF14
:101A0000B61A754640EADC0055EA060E18D04FEAD1
:101A1000051545EA16754FEA06164FEAC30343EA71
:101A200052734FEAC2025FEA1C1CC0D111F4801F3E
:101A30000BD141EA00014FF000004FF0004CB6E737
:101A400011F4801F04BF01430020B4F1FD0C88BFD6
:101A5000BCF5E06F3FF6AFAEB5EB030C04BFB6EBE1
:101A6000020C5FEA500C50F1000041EB045170BDD4
:101A70000EF0004E4EEA113114EB5C04C2BFD4EB01
:101A80000C0541EA045170BD41F480114FF0000E85
:101A9000013C90E645EA060E8DE60CEA135594EA01
:101AA0000C0F08BF95EA0C0F3FF43BAF94EA0C0F04
:101AB0000AD150EA01347FF434AF95EA0C0F7FF479
:101AC00025AF104619462CE795EA0C0F06D152EACD
:101AD00003353FF4FDAE1046194622E750EA4106B1
:101AE00018BF52EA43067FF4C5AE50EA41047FF4C2
:101AF0000DAF52EA43057FF4EBAE12E74FF0FF3C27
:101B000006E000BF4FF0010C02E000BF4FF0010CF7
:101B10004DF804CD4FEA410C7FEA6C5C4FEA430C70
:101B200018BF7FEA6C5C1BD001B050EA410C0CBFBF
:101B300052EA430C91EA030F02BF90EA020F002021
:101B4000704710F1000F91EA030F58BF994208BF88
:101B500090422CBFD8176FEAE37040F00100704745
:101B60004FEA410C7FEA6C5C02D150EA013C07D19C
:101B70004FEA430C7FEA6C5CD6D152EA033CD3D0E7
:101B80005DF8040B704700BF8446104662468C46E1
:101B90001946634600E000BF01B5FFF7B7FF002814
:101BA00048BF10F1000F01BD4DF808EDFFF7F4FF3D
:101BB0000CBF012000205DF808FB00BF4DF808EDC8
:101BC000FFF7EAFF34BF012000205DF808FB00BFEB
:101BD0004DF808EDFFF7E0FF94BF012000205DF80D
:101BE00008FB00BF4DF808EDFFF7CEFF94BF0120C2
:101BF00000205DF808FB00BF4DF808EDFFF7C4FFBB
:101C000034BF012000205DF808FB00BF4FEA410C03
:101C10007FEA6C5C02D150EA013C0AD14FEA430CE6
:101C20007FEA6C5C02D152EA033C02D14FF0000023
:101C300070474FF0010070474FEA410212F5001261
:101C400015D211D56FF47873B3EB625212D94FEA03
:101C5000C12343F0004343EA505311F0004F23FAED
:101C600002F018BF404270474FF00000704750EA42
:101C7000013005D111F0004008BF6FF000407047FF
:101C80004FF00000704700BF4A0011D212F5001259
:101C900011D20DD56FF47873B3EB62520ED44FEAC4
:101CA000C12343F0004343EA505323FA02F0704744
:101CB0004FF00000704750EA013002D14FF0FF3082
:101CC00070474FF0000070474FEA4102B2F1E04325
:101CD00024BFB3F5001CDCF1FE5C0DD901F0004C13
:101CE0004FEAC0024CEA5070B2F1004F40EB830063
:101CF00008BF20F00100704711F0804F21D113F18F
:101D00003872BCBF01F00040704741F480114FEAC7
:101D10005252C2F11802C2F1200C10FA0CF320FA50
:101D200002F018BF40F001004FEAC1234FEAD3236D
:101D300003FA0CFC40EA0C0023FA02F34FEA4303D7
:101D4000CCE77FEA625307D150EA01331EBF4FF060
:101D5000FE4040F44000704701F0004040F0FE407B
:101D600040F40000704700BF80F0004002E000BF78
:101D700081F0004142001FBF5FEA410392EA030F76
:101D80007FEA226C7FEA236C6AD04FEA1262D2EBC0
:101D90001363C1BFD218414048404140B8BF5B42C5
:101DA000192B88BF704710F0004F40F4000020F05E
:101DB0007F4018BF404211F0004F41F4000121F074
:101DC0007F4118BF494292EA030F3FD0A2F10102BE
:101DD00041FA03FC10EB0C00C3F1200301FA03F1FC
:101DE00000F0004302D5494260EB4000B0F5000F1F
:101DF00013D3B0F1807F06D340084FEA310102F1DE
:101E00000102FE2A51D2B1F1004F40EBC25008BF8F
:101E100020F0010040EA03007047490040EB000059
:101E2000013A28BFB0F5000FEDD2B0FA80FCACF15A
:101E3000080CB2EB0C0200FA0CF0AABF00EBC25087
:101E400052421843BCBFD0401843704792F0000F75
:101E500081F4000106BF80F400000132013BB5E7C8
:101E60004FEA41037FEA226C18BF7FEA236C21D03E
:101E700092EA030F04D092F0000F08BF08467047A3
:101E800090EA010F1CBF0020704712F07F4F04D171
:101E9000400028BF40F00040704712F100723CBF84
:101EA00000F50000704700F0004343F0FE4040F4AE
:101EB000000070477FEA226216BF08467FEA23636C
:101EC0000146420206BF5FEA412390EA010F40F457
:101ED000800070474FF0000304E000BF10F00043A3
:101EE00048BF40425FEA000C08BF704743F096438A
:101EF00001464FF000001CE050EA010208BF7047A5
:101F00004FF000030AE000BF50EA010208BF70472B
:101F100011F0004302D5404261EB41015FEA010C40
:101F200002BF84460146002043F0B64308BFA3F138
:101F30008053A3F50003BCFA8CF2083AA3EBC2531A
:101F400010DB01FA02FC634400FA02FCC2F1200239
:101F5000BCF1004F20FA02F243EB020008BF20F070
:101F60000100704702F1200201FA02FCC2F12002D6
:101F700050EA4C0021FA02F243EB020008BF20EACB
:101F8000DC7070474FF0FF0C1CEAD0521EBF1CEAF9
:101F9000D15392EA0C0F93EA0C0F6FD01A4480EAE7
:101FA000010C400218BF5FEA41211ED04FF00063D0
:101FB00043EA501043EA5111A0FB01310CF00040FC
:101FC000B1F5000F3EBF490041EAD3715B0040EA22
:101FD000010062F17F02FD2A1DD8B3F1004F40EBF2
:101FE000C25008BF20F00100704790F0000F0CF0C5
:101FF000004C08BF49024CEA502040EA51207F3A89
:10200000C2BFD2F1FF0340EAC250704740F4000063
:102010004FF00003013A5DDC12F1190FDCBF00F054
:1020200000407047C2F10002410021FA02F1C2F102
:10203000200200FA02FC5FEA310040F1000053EA9E
:102040004C0308BF20EADC70704792F0000F00F0EC
:10205000004C02BF400010F4000F013AF9D040EAF2
:102060000C0093F0000F01F0004C02BF490011F486
:10207000000F013BF9D041EA0C018FE70CEAD15384
:1020800092EA0C0F18BF93EA0C0F0AD030F0004C04
:1020900018BF31F0004CD8D180EA010000F00040B8
:1020A000704790F0000F17BF90F0004F084691F076
:1020B000000F91F0004F14D092EA0C0F01D14202B0
:1020C0000FD193EA0C0F03D14B0218BF084608D179
:1020D00080EA010000F0004040F0FE4040F40000C3
:1020E000704740F0FE4040F4400070474FF0FF0C56
:1020F0001CEAD0521EBF1CEAD15392EA0C0F93EA9D
:102100000C0F69D0A2EB030280EA010C49024FEAEE
:10211000402037D04FF0805343EA111143EA1013A7
:102120000CF000408B4238BF5B0042F17D024FF45F
:10213000000C8B4224BF5B1A40EA0C00B3EB510F3A
:1021400024BFA3EB510340EA5C00B3EB910F24BF23
:10215000A3EB910340EA9C00B3EBD10F24BFA3EBA8
:10216000D10340EADC001B0118BF5FEA1C1CE0D170
:10217000FD2A3FF650AF8B4240EBC25008BF20F023
:10218000010070470CF0004C4CEA50207F32C2BF77
:10219000D2F1FF0340EAC250704740F400004FF014
:1021A0000003013A37E792F0000F00F0004C02BF45
:1021B000400010F4000F013AF9D040EA0C0093F00F
:1021C000000F01F0004C02BF490011F4000F013B69
:1021D000F9D041EA0C0195E70CEAD15392EA0C0FD1
:1021E00008D142027FF47DAF93EA0C0F7FF470AF09
:1021F000084676E793EA0C0F04D14B023FF44CAF4C
:1022000008466EE730F0004C18BF31F0004CCAD1E0
:1022100030F000427FF45CAF31F000437FF43CAF1C
:102220005FE700BF4FF0FF3C06E000BF4FF0010C3E
:1022300002E000BF4FF0010C4DF804CD4FEA400220
:102240004FEA41037FEA226C18BF7FEA236C11D06A
:1022500001B052EA530C18BF90EA010F58BFB2EB1D
:10226000030088BFC81738BF6FEAE17018BF40F09D
:10227000010070477FEA226C02D15FEA402C05D151
:102280007FEA236CE4D15FEA412CE1D05DF8040BD6
:10229000704700BF844608466146FFE70FB5FFF769
:1022A000C9FF002848BF10F1000F0FBD4DF808ED21
:1022B000FFF7F4FF0CBF012000205DF808FB00BF12
:1022C0004DF808EDFFF7EAFF34BF012000205DF86C
:1022D00008FB00BF4DF808EDFFF7E0FF94BF0120B9
:1022E00000205DF808FB00BF4DF808EDFFF7D2FFB6
:1022F00094BF012000205DF808FB00BF4DF808EDF9
:10230000FFF7C8FF34BF012000205DF808FB00BFC5
:10231000002301461A46184600F042B80A4491428A
:1023200000F1FF3300D1704710B511F8014B914215
:1023300003F8014FF9D110BD03460244934200D186
:10234000704703F8011BF9E738B50D4B04461D68CB
:10235000AB6B7BB91820FEF70FFA0A4A0A4BA86349
:10236000C0E90023094B012283600B2383810023F2
:10237000C0E904230022AB6B1C615A6138BD00BF69
:10238000040000200E33CDAB34126DE6ECDE050008
:10239000034613F8012B002AFBD1181A01387047A5
:1023A0002DE9F843DFF8BC800646D8F800001F4648
:1023B0000D46914600F058F8264B1C6834B9264C5F
:1023C0001C60264B13B11B68C4F8883063681F2B50
:1023D00007DDD8F8000000F049F84FF0FF30BDE805
:1023E000F8835EB3D4F8880088B91D4B23B9D8F8B8
:1023F000000000F03AF8F0E74FF48470FEF7BCF903
:102400000028F4D00023C0E94033C4F8880001223A
:102410006368022E40F8239002FA03F200EB830176
:10242000D0F8003143EA0203C0F80031C1F88070EF
:1024300002BFD0F804311A43C0F804216368D8F809
:1024400000005A1C0233626044F8235000F00EF87A
:102450000020C4E7F0050020640500200000000013
:1024600079070A086800002070477047704700002D
:1024700021000A0861000A0889000A088D000A087C
:102480000000000020005374617274696E6720546C
:10249000657272617269756D206D6F6E69746F72AD
:1024A000696E67206170706C69636174696F6E2E0C
:1024B0000047657474696E67206C696768740054BE
:1024C0004553540052656163686564206578706F98
:1024D0007375726520666F72207468652064617917
:1024E000004578706F737572652064696666657201
:1024F000656E63650043757272656E7420657870F1
:102500006F737572652074696D653A006E616E0057
:10251000696E66006F7666006170700025592D2522
:102520006D2D25645425483A254D3A2553257A00CA
:1025300061736374696D65000000000000000000B5
:10254000F90C0A08E90C0A08EB0C0A080000000064
:1025500000000000B70D0A081D0E0A08F50D0A0854
:10256000CB080A08E70D0A08B90D0A08C90D0A08C0
:10257000170E0A08D90D0A08B10D0A08000000005C
:1025800000000000450F0A08AF0F0A088B0F0A0869
:10259000CB080A085B0F0A08770F0A08690F0A08B8
:1025A000850F0A08470F0A084D0F0A0800000000AF
:1025B0000000000031100A087B100A0853100A08B6
:1025C00033100A085B100A0863100A086B100A0827
:1025D00073100A080000000000000000C5110A087E
:1025E000BB110A08B1110A082F110A08450B0A0885
:1025F000A5110A0825120A082D120A0899110A08BD
:1026000091110A0887110A087D110A0839110A0870
:102610000000000000000000E5110A08EF110A08A0
:10262000F9110A0803120A080D120A0819120A08F9
:1026300025120A082D120A0835120A0841120A0842
:1026400049120A0853120A085D120A080000000025
:1026500069040A08B9070A08510B0A08610B0A083D
:102660007D0B0A08D1110A08AD120A08C1120A0826
:042670000000000066
:1026740030250A08080000200000000000000000C7
:102684000000000000000000000000000000000046
:102694000000000000000000000000000000000036
:1026A4000000000000000000000000000000000026
:1026B4000000000000000000000000000000000016
:1026C4000000000000000000000000000000000006
:0C26D4000000000000000000F5050020E0
:1026E000FFFFFFFF00000102030405060708090AB7
:1026F0000B0C0D0E0F101112131415161718191AB2
:082700001B1C1D1E1F202800F8
:0427080078563412B9
:040000052000009443
:00000001FF
